{
  "contractName": "MyContract",
  "abi": [
    {
      "inputs": [
        {
          "internalType": "address payable",
          "name": "_admin",
          "type": "address"
        }
      ],
      "stateMutability": "nonpayable",
      "type": "constructor"
    },
    {
      "anonymous": false,
      "inputs": [
        {
          "indexed": false,
          "internalType": "string",
          "name": "message",
          "type": "string"
        }
      ],
      "name": "simpleConsoleLog",
      "type": "event"
    },
    {
      "inputs": [],
      "name": "admin",
      "outputs": [
        {
          "internalType": "address payable",
          "name": "",
          "type": "address"
        }
      ],
      "stateMutability": "view",
      "type": "function",
      "constant": true
    },
    {
      "inputs": [],
      "name": "balanceWei",
      "outputs": [
        {
          "internalType": "uint256",
          "name": "",
          "type": "uint256"
        }
      ],
      "stateMutability": "view",
      "type": "function",
      "constant": true
    },
    {
      "inputs": [
        {
          "internalType": "uint256",
          "name": "",
          "type": "uint256"
        }
      ],
      "name": "tickets",
      "outputs": [
        {
          "internalType": "address",
          "name": "",
          "type": "address"
        }
      ],
      "stateMutability": "view",
      "type": "function",
      "constant": true
    },
    {
      "inputs": [],
      "name": "transferBalanceToAdmin",
      "outputs": [],
      "stateMutability": "nonpayable",
      "type": "function"
    },
    {
      "inputs": [
        {
          "internalType": "uint256",
          "name": "tiketIndex",
          "type": "uint256"
        }
      ],
      "name": "buyTiket",
      "outputs": [
        {
          "internalType": "bool",
          "name": "",
          "type": "bool"
        }
      ],
      "stateMutability": "payable",
      "type": "function",
      "payable": true
    },
    {
      "inputs": [],
      "name": "getTikets",
      "outputs": [
        {
          "internalType": "address[16]",
          "name": "",
          "type": "address[16]"
        }
      ],
      "stateMutability": "view",
      "type": "function",
      "constant": true
    }
  ],
  "bytecode": "0x6080604052600060105534801561001557600080fd5b50604051610a54380380610a54833981810160405281019061003791906100e1565b80601160006101000a81548173ffffffffffffffffffffffffffffffffffffffff021916908373ffffffffffffffffffffffffffffffffffffffff1602179055505061010e565b600080fd5b600073ffffffffffffffffffffffffffffffffffffffff82169050919050565b60006100ae82610083565b9050919050565b6100be816100a3565b81146100c957600080fd5b50565b6000815190506100db816100b5565b92915050565b6000602082840312156100f7576100f661007e565b5b6000610105848285016100cc565b91505092915050565b6109378061011d6000396000f3fe6080604052600436106100555760003560e01c806350b447121461005a57806352ba15e6146100975780638aeeae49146100ae5780638f627444146100de578063be4fb14d14610109578063f851a44014610134575b600080fd5b34801561006657600080fd5b50610081600480360381019061007c919061052e565b61015f565b60405161008e919061059c565b60405180910390f35b3480156100a357600080fd5b506100ac610195565b005b6100c860048036038101906100c3919061052e565b61029a565b6040516100d591906105d2565b60405180910390f35b3480156100ea57600080fd5b506100f3610423565b6040516101009190610698565b60405180910390f35b34801561011557600080fd5b5061011e6104a4565b60405161012b91906106c3565b60405180910390f35b34801561014057600080fd5b506101496104aa565b60405161015691906106ff565b60405180910390f35b6000816010811061016f57600080fd5b016000915054906101000a900473ffffffffffffffffffffffffffffffffffffffff1681565b601160009054906101000a900473ffffffffffffffffffffffffffffffffffffffff1673ffffffffffffffffffffffffffffffffffffffff163373ffffffffffffffffffffffffffffffffffffffff1614610225576040517f08c379a000000000000000000000000000000000000000000000000000000000815260040161021c90610777565b60405180910390fd5b601160009054906101000a900473ffffffffffffffffffffffffffffffffffffffff1673ffffffffffffffffffffffffffffffffffffffff166108fc6010549081150290604051600060405180830381858888f1935050505015801561028f573d6000803e3d6000fd5b506000601081905550565b60008082101580156102ad5750600f8211155b6102b657600080fd5b66470de4df82000034146102ff576040517f08c379a00000000000000000000000000000000000000000000000000000000081526004016102f6906107e3565b60405180910390fd5b34601060008282546103119190610832565b92505081905550600060019050600073ffffffffffffffffffffffffffffffffffffffff166000846010811061034a57610349610866565b5b0160009054906101000a900473ffffffffffffffffffffffffffffffffffffffff1673ffffffffffffffffffffffffffffffffffffffff160361041557336000846010811061039c5761039b610866565b5b0160006101000a81548173ffffffffffffffffffffffffffffffffffffffff021916908373ffffffffffffffffffffffffffffffffffffffff1602179055507f1b30e0a556ea9ec102edf7e7869684d78efe978a98e6ea23b86dd868b33508cf604051610408906108e1565b60405180910390a161041a565b600090505b80915050919050565b61042b6104d0565b600060108060200260405190810160405280929190826010801561049a576020028201915b8160009054906101000a900473ffffffffffffffffffffffffffffffffffffffff1673ffffffffffffffffffffffffffffffffffffffff1681526020019060010190808311610450575b5050505050905090565b60105481565b601160009054906101000a900473ffffffffffffffffffffffffffffffffffffffff1681565b604051806102000160405280601090602082028036833780820191505090505090565b600080fd5b6000819050919050565b61050b816104f8565b811461051657600080fd5b50565b60008135905061052881610502565b92915050565b600060208284031215610544576105436104f3565b5b600061055284828501610519565b91505092915050565b600073ffffffffffffffffffffffffffffffffffffffff82169050919050565b60006105868261055b565b9050919050565b6105968161057b565b82525050565b60006020820190506105b1600083018461058d565b92915050565b60008115159050919050565b6105cc816105b7565b82525050565b60006020820190506105e760008301846105c3565b92915050565b600060109050919050565b600081905092915050565b6000819050919050565b6106168161057b565b82525050565b6000610628838361060d565b60208301905092915050565b6000602082019050919050565b61064a816105ed565b61065481846105f8565b925061065f82610603565b8060005b83811015610690578151610677878261061c565b965061068283610634565b925050600181019050610663565b505050505050565b6000610200820190506106ae6000830184610641565b92915050565b6106bd816104f8565b82525050565b60006020820190506106d860008301846106b4565b92915050565b60006106e98261055b565b9050919050565b6106f9816106de565b82525050565b600060208201905061071460008301846106f0565b92915050565b600082825260208201905092915050565b7f4e6f206572657320656c2061646d696e00000000000000000000000000000000600082015250565b600061076160108361071a565b915061076c8261072b565b602082019050919050565b6000602082019050818103600083015261079081610754565b9050919050565b7f496e737566696369656e7420616d6f756e74206f6620424e4200000000000000600082015250565b60006107cd60198361071a565b91506107d882610797565b602082019050919050565b600060208201905081810360008301526107fc816107c0565b9050919050565b7f4e487b7100000000000000000000000000000000000000000000000000000000600052601160045260246000fd5b600061083d826104f8565b9150610848836104f8565b92508282019050808211156108605761085f610803565b5b92915050565b7f4e487b7100000000000000000000000000000000000000000000000000000000600052603260045260246000fd5b7f5469636b657420636f6d707261646f0000000000000000000000000000000000600082015250565b60006108cb600f8361071a565b91506108d682610895565b602082019050919050565b600060208201905081810360008301526108fa816108be565b905091905056fea2646970667358221220bb56eee749d2f2ed6f17c91c8150c71574daaf2628e7a984249b4467c60362d164736f6c63430008110033",
  "immutableReferences": {},
  "source": "pragma solidity ^0.8.10;\r\n\r\ncontract MyContract {\r\n    address[16] public tickets;\r\n    uint public balanceWei = 0;\r\n    address payable public admin;\r\n    event simpleConsoleLog(string message);\r\n\r\n    constructor(address payable _admin) {\r\n        admin = payable(_admin);\r\n    }\r\n\r\n    function transferBalanceToAdmin () public {\r\n        require(msg.sender == admin, \"No eres el admin\");\r\n        \r\n        admin.transfer(balanceWei);\r\n        balanceWei = 0;\r\n    }\r\n\r\n    function buyTiket(uint tiketIndex) payable public returns (bool) {\r\n        // Comprobacin\r\n        require(tiketIndex >= 0 && tiketIndex <= 15);\r\n        require(msg.value == 0.02 ether, \"Insuficient amount of BNB\");\r\n\r\n        balanceWei += msg.value;\r\n        bool sucess = true;\r\n\r\n        if (tickets[tiketIndex] == address(0)){\r\n            // msg.sender address del usuario que invoco al contrato\r\n            tickets[tiketIndex] = msg.sender;\r\n            emit simpleConsoleLog(\"Ticket comprado\");\r\n        } else {\r\n            sucess = false ;\r\n        }\r\n        return sucess;\r\n    }\r\n\r\n    function getTikets() public view returns (address[16] memory) {\r\n        return tickets;\r\n    }\r\n}",
  "sourcePath": "D:\\repos\\curso-blockchain\\bnb1\\contracts\\MyContract.sol",
  "compiler": {
    "name": "solc",
    "version": "0.8.17+commit.8df45f5f.Emscripten.clang"
  },
  "schemaVersion": "3.4.16",
  "updatedAt": "2024-07-19T16:34:17.906Z",
  "networkType": "ethereum",
  "devdoc": {
    "kind": "dev",
    "methods": {},
    "version": 1
  },
  "userdoc": {
    "kind": "user",
    "methods": {},
    "version": 1
  }
}