{
  "contractName": "MyContract",
  "abi": [
    {
      "inputs": [
        {
          "internalType": "address payable",
          "name": "_admin",
          "type": "address"
        }
      ],
      "stateMutability": "nonpayable",
      "type": "constructor"
    },
    {
      "anonymous": false,
      "inputs": [
        {
          "indexed": false,
          "internalType": "string",
          "name": "message",
          "type": "string"
        }
      ],
      "name": "simpleConsoleLog",
      "type": "event"
    },
    {
      "inputs": [],
      "name": "admin",
      "outputs": [
        {
          "internalType": "address payable",
          "name": "",
          "type": "address"
        }
      ],
      "stateMutability": "view",
      "type": "function",
      "constant": true
    },
    {
      "inputs": [],
      "name": "balanceWei",
      "outputs": [
        {
          "internalType": "uint256",
          "name": "",
          "type": "uint256"
        }
      ],
      "stateMutability": "view",
      "type": "function",
      "constant": true
    },
    {
      "inputs": [
        {
          "internalType": "uint256",
          "name": "",
          "type": "uint256"
        }
      ],
      "name": "tickets",
      "outputs": [
        {
          "internalType": "address",
          "name": "",
          "type": "address"
        }
      ],
      "stateMutability": "view",
      "type": "function",
      "constant": true
    },
    {
      "inputs": [],
      "name": "transferBalanceToAdmin",
      "outputs": [],
      "stateMutability": "nonpayable",
      "type": "function"
    },
    {
      "inputs": [
        {
          "internalType": "address payable",
          "name": "newAdmin",
          "type": "address"
        }
      ],
      "name": "changeAdmin",
      "outputs": [],
      "stateMutability": "nonpayable",
      "type": "function"
    },
    {
      "inputs": [
        {
          "internalType": "uint256",
          "name": "tiketIndex",
          "type": "uint256"
        }
      ],
      "name": "buyTiket",
      "outputs": [
        {
          "internalType": "bool",
          "name": "",
          "type": "bool"
        }
      ],
      "stateMutability": "payable",
      "type": "function",
      "payable": true
    },
    {
      "inputs": [],
      "name": "getTikets",
      "outputs": [
        {
          "internalType": "address[16]",
          "name": "",
          "type": "address[16]"
        }
      ],
      "stateMutability": "view",
      "type": "function",
      "constant": true
    }
  ],
  "bytecode": "0x6080604052600060105534801561001557600080fd5b50604051610bc5380380610bc5833981810160405281019061003791906100e1565b80601160006101000a81548173ffffffffffffffffffffffffffffffffffffffff021916908373ffffffffffffffffffffffffffffffffffffffff1602179055505061010e565b600080fd5b600073ffffffffffffffffffffffffffffffffffffffff82169050919050565b60006100ae82610083565b9050919050565b6100be816100a3565b81146100c957600080fd5b50565b6000815190506100db816100b5565b92915050565b6000602082840312156100f7576100f661007e565b5b6000610105848285016100cc565b91505092915050565b610aa88061011d6000396000f3fe6080604052600436106100705760003560e01c80638f2839701161004e5780638f283970146100f95780638f62744414610122578063be4fb14d1461014d578063f851a4401461017857610070565b806350b447121461007557806352ba15e6146100b25780638aeeae49146100c9575b600080fd5b34801561008157600080fd5b5061009c60048036038101906100979190610646565b6101a3565b6040516100a991906106b4565b60405180910390f35b3480156100be57600080fd5b506100c76101d9565b005b6100e360048036038101906100de9190610646565b6102de565b6040516100f091906106ea565b60405180910390f35b34801561010557600080fd5b50610120600480360381019061011b9190610743565b610467565b005b34801561012e57600080fd5b5061013761053b565b604051610144919061081b565b60405180910390f35b34801561015957600080fd5b506101626105bc565b60405161016f9190610846565b60405180910390f35b34801561018457600080fd5b5061018d6105c2565b60405161019a9190610870565b60405180910390f35b600081601081106101b357600080fd5b016000915054906101000a900473ffffffffffffffffffffffffffffffffffffffff1681565b601160009054906101000a900473ffffffffffffffffffffffffffffffffffffffff1673ffffffffffffffffffffffffffffffffffffffff163373ffffffffffffffffffffffffffffffffffffffff1614610269576040517f08c379a0000000000000000000000000000000000000000000000000000000008152600401610260906108e8565b60405180910390fd5b601160009054906101000a900473ffffffffffffffffffffffffffffffffffffffff1673ffffffffffffffffffffffffffffffffffffffff166108fc6010549081150290604051600060405180830381858888f193505050501580156102d3573d6000803e3d6000fd5b506000601081905550565b60008082101580156102f15750600f8211155b6102fa57600080fd5b66470de4df8200003414610343576040517f08c379a000000000000000000000000000000000000000000000000000000000815260040161033a90610954565b60405180910390fd5b346010600082825461035591906109a3565b92505081905550600060019050600073ffffffffffffffffffffffffffffffffffffffff166000846010811061038e5761038d6109d7565b5b0160009054906101000a900473ffffffffffffffffffffffffffffffffffffffff1673ffffffffffffffffffffffffffffffffffffffff16036104595733600084601081106103e0576103df6109d7565b5b0160006101000a81548173ffffffffffffffffffffffffffffffffffffffff021916908373ffffffffffffffffffffffffffffffffffffffff1602179055507f1b30e0a556ea9ec102edf7e7869684d78efe978a98e6ea23b86dd868b33508cf60405161044c90610a52565b60405180910390a161045e565b600090505b80915050919050565b601160009054906101000a900473ffffffffffffffffffffffffffffffffffffffff1673ffffffffffffffffffffffffffffffffffffffff163373ffffffffffffffffffffffffffffffffffffffff16146104f7576040517f08c379a00000000000000000000000000000000000000000000000000000000081526004016104ee906108e8565b60405180910390fd5b80601160006101000a81548173ffffffffffffffffffffffffffffffffffffffff021916908373ffffffffffffffffffffffffffffffffffffffff16021790555050565b6105436105e8565b60006010806020026040519081016040528092919082601080156105b2576020028201915b8160009054906101000a900473ffffffffffffffffffffffffffffffffffffffff1673ffffffffffffffffffffffffffffffffffffffff1681526020019060010190808311610568575b5050505050905090565b60105481565b601160009054906101000a900473ffffffffffffffffffffffffffffffffffffffff1681565b604051806102000160405280601090602082028036833780820191505090505090565b600080fd5b6000819050919050565b61062381610610565b811461062e57600080fd5b50565b6000813590506106408161061a565b92915050565b60006020828403121561065c5761065b61060b565b5b600061066a84828501610631565b91505092915050565b600073ffffffffffffffffffffffffffffffffffffffff82169050919050565b600061069e82610673565b9050919050565b6106ae81610693565b82525050565b60006020820190506106c960008301846106a5565b92915050565b60008115159050919050565b6106e4816106cf565b82525050565b60006020820190506106ff60008301846106db565b92915050565b600061071082610673565b9050919050565b61072081610705565b811461072b57600080fd5b50565b60008135905061073d81610717565b92915050565b6000602082840312156107595761075861060b565b5b60006107678482850161072e565b91505092915050565b600060109050919050565b600081905092915050565b6000819050919050565b61079981610693565b82525050565b60006107ab8383610790565b60208301905092915050565b6000602082019050919050565b6107cd81610770565b6107d7818461077b565b92506107e282610786565b8060005b838110156108135781516107fa878261079f565b9650610805836107b7565b9250506001810190506107e6565b505050505050565b60006102008201905061083160008301846107c4565b92915050565b61084081610610565b82525050565b600060208201905061085b6000830184610837565b92915050565b61086a81610705565b82525050565b60006020820190506108856000830184610861565b92915050565b600082825260208201905092915050565b7f4e6f206572657320656c2061646d696e00000000000000000000000000000000600082015250565b60006108d260108361088b565b91506108dd8261089c565b602082019050919050565b60006020820190508181036000830152610901816108c5565b9050919050565b7f496e737566696369656e7420616d6f756e74206f6620424e4200000000000000600082015250565b600061093e60198361088b565b915061094982610908565b602082019050919050565b6000602082019050818103600083015261096d81610931565b9050919050565b7f4e487b7100000000000000000000000000000000000000000000000000000000600052601160045260246000fd5b60006109ae82610610565b91506109b983610610565b92508282019050808211156109d1576109d0610974565b5b92915050565b7f4e487b7100000000000000000000000000000000000000000000000000000000600052603260045260246000fd5b7f5469636b657420636f6d707261646f0000000000000000000000000000000000600082015250565b6000610a3c600f8361088b565b9150610a4782610a06565b602082019050919050565b60006020820190508181036000830152610a6b81610a2f565b905091905056fea2646970667358221220115176d9bd3ef6d35bd454fc322308c3c923c657e321cacf4e9dbf6a7bab7f9b64736f6c63430008110033",
  "immutableReferences": {},
  "source": "pragma solidity ^0.8.10;\r\n\r\ncontract MyContract {\r\n    address[16] public tickets;\r\n    uint public balanceWei = 0;\r\n    address payable public admin;\r\n    event simpleConsoleLog(string message);\r\n\r\n    constructor(address payable _admin) {\r\n        admin = payable(_admin);\r\n    }\r\n\r\n    function transferBalanceToAdmin () public {\r\n        require(msg.sender == admin, \"No eres el admin\");\r\n        \r\n        admin.transfer(balanceWei);\r\n        balanceWei = 0;\r\n    }\r\n\r\n    function changeAdmin(address payable newAdmin) public {\r\n        require(msg.sender == admin, \"No eres el admin\");\r\n\r\n        admin = newAdmin;\r\n    }\r\n\r\n    function buyTiket(uint tiketIndex) payable public returns (bool) {\r\n        // Comprobacin\r\n        require(tiketIndex >= 0 && tiketIndex <= 15);\r\n        require(msg.value == 0.02 ether, \"Insuficient amount of BNB\");\r\n\r\n        balanceWei += msg.value;\r\n        bool sucess = true;\r\n\r\n        if (tickets[tiketIndex] == address(0)){\r\n            // msg.sender address del usuario que invoco al contrato\r\n            tickets[tiketIndex] = msg.sender;\r\n            emit simpleConsoleLog(\"Ticket comprado\");\r\n        } else {\r\n            sucess = false ;\r\n        }\r\n        return sucess;\r\n    }\r\n\r\n    function getTikets() public view returns (address[16] memory) {\r\n        return tickets;\r\n    }\r\n}",
  "sourcePath": "D:\\repos\\curso-blockchain\\bnb1\\contracts\\MyContract.sol",
  "compiler": {
    "name": "solc",
    "version": "0.8.17+commit.8df45f5f.Emscripten.clang"
  },
  "schemaVersion": "3.4.16",
  "updatedAt": "2024-07-20T14:04:52.986Z",
  "networkType": "ethereum",
  "devdoc": {
    "kind": "dev",
    "methods": {},
    "version": 1
  },
  "userdoc": {
    "kind": "user",
    "methods": {},
    "version": 1
  }
}