{
  "contractName": "MyContract",
  "abi": [
    {
      "inputs": [
        {
          "internalType": "address payable",
          "name": "_admin",
          "type": "address"
        }
      ],
      "stateMutability": "nonpayable",
      "type": "constructor"
    },
    {
      "anonymous": false,
      "inputs": [
        {
          "indexed": false,
          "internalType": "string",
          "name": "message",
          "type": "string"
        }
      ],
      "name": "simpleConsoleLog",
      "type": "event"
    },
    {
      "inputs": [],
      "name": "admin",
      "outputs": [
        {
          "internalType": "address payable",
          "name": "",
          "type": "address"
        }
      ],
      "stateMutability": "view",
      "type": "function",
      "constant": true
    },
    {
      "inputs": [],
      "name": "balanceWei",
      "outputs": [
        {
          "internalType": "uint256",
          "name": "",
          "type": "uint256"
        }
      ],
      "stateMutability": "view",
      "type": "function",
      "constant": true
    },
    {
      "inputs": [
        {
          "internalType": "uint256",
          "name": "",
          "type": "uint256"
        }
      ],
      "name": "tickets",
      "outputs": [
        {
          "internalType": "address",
          "name": "",
          "type": "address"
        }
      ],
      "stateMutability": "view",
      "type": "function",
      "constant": true
    },
    {
      "inputs": [],
      "name": "transferBalanceToAdmin",
      "outputs": [],
      "stateMutability": "nonpayable",
      "type": "function"
    },
    {
      "inputs": [
        {
          "internalType": "address payable",
          "name": "newAdmin",
          "type": "address"
        }
      ],
      "name": "changeAdmin",
      "outputs": [],
      "stateMutability": "nonpayable",
      "type": "function"
    },
    {
      "inputs": [],
      "name": "getBalance",
      "outputs": [
        {
          "internalType": "uint256",
          "name": "",
          "type": "uint256"
        },
        {
          "internalType": "uint256",
          "name": "",
          "type": "uint256"
        }
      ],
      "stateMutability": "view",
      "type": "function",
      "constant": true
    },
    {
      "inputs": [
        {
          "internalType": "uint256",
          "name": "tiketIndex",
          "type": "uint256"
        }
      ],
      "name": "buyTiket",
      "outputs": [],
      "stateMutability": "payable",
      "type": "function",
      "payable": true
    },
    {
      "inputs": [
        {
          "internalType": "uint256",
          "name": "index",
          "type": "uint256"
        }
      ],
      "name": "isTicketAvailable",
      "outputs": [
        {
          "internalType": "bool",
          "name": "",
          "type": "bool"
        }
      ],
      "stateMutability": "view",
      "type": "function",
      "constant": true
    },
    {
      "inputs": [],
      "name": "getTikets",
      "outputs": [
        {
          "internalType": "address[16]",
          "name": "",
          "type": "address[16]"
        }
      ],
      "stateMutability": "view",
      "type": "function",
      "constant": true
    }
  ],
  "bytecode": "0x6080604052600060105534801561001557600080fd5b50604051610d49380380610d49833981810160405281019061003791906100e1565b80601160006101000a81548173ffffffffffffffffffffffffffffffffffffffff021916908373ffffffffffffffffffffffffffffffffffffffff1602179055505061010e565b600080fd5b600073ffffffffffffffffffffffffffffffffffffffff82169050919050565b60006100ae82610083565b9050919050565b6100be816100a3565b81146100c957600080fd5b50565b6000815190506100db816100b5565b92915050565b6000602082840312156100f7576100f661007e565b5b6000610105848285016100cc565b91505092915050565b610c2c8061011d6000396000f3fe6080604052600436106100865760003560e01c80638f283970116100595780638f283970146101275780638f62744414610150578063be4fb14d1461017b578063e8eedc08146101a6578063f851a440146101e357610086565b806312065fe01461008b57806350b44712146100b757806352ba15e6146100f45780638aeeae491461010b575b600080fd5b34801561009757600080fd5b506100a061020e565b6040516100ae9291906106ed565b60405180910390f35b3480156100c357600080fd5b506100de60048036038101906100d99190610747565b610234565b6040516100eb91906107b5565b60405180910390f35b34801561010057600080fd5b5061010961026a565b005b61012560048036038101906101209190610747565b61036f565b005b34801561013357600080fd5b5061014e6004803603810190610149919061080e565b610482565b005b34801561015c57600080fd5b50610165610556565b60405161017291906108e6565b60405180910390f35b34801561018757600080fd5b506101906105d7565b60405161019d9190610902565b60405180910390f35b3480156101b257600080fd5b506101cd60048036038101906101c89190610747565b6105dd565b6040516101da9190610938565b60405180910390f35b3480156101ef57600080fd5b506101f861068b565b6040516102059190610962565b60405180910390f35b6000806010543073ffffffffffffffffffffffffffffffffffffffff1631915091509091565b6000816010811061024457600080fd5b016000915054906101000a900473ffffffffffffffffffffffffffffffffffffffff1681565b601160009054906101000a900473ffffffffffffffffffffffffffffffffffffffff1673ffffffffffffffffffffffffffffffffffffffff163373ffffffffffffffffffffffffffffffffffffffff16146102fa576040517f08c379a00000000000000000000000000000000000000000000000000000000081526004016102f1906109da565b60405180910390fd5b601160009054906101000a900473ffffffffffffffffffffffffffffffffffffffff1673ffffffffffffffffffffffffffffffffffffffff166108fc6010549081150290604051600060405180830381858888f19350505050158015610364573d6000803e3d6000fd5b506000601081905550565b600081101580156103815750600f8111155b61038a57600080fd5b66470de4df82000034146103d3576040517f08c379a00000000000000000000000000000000000000000000000000000000081526004016103ca90610a46565b60405180910390fd5b34601060008282546103e59190610a95565b925050819055506103f5816105dd565b50336000826010811061040b5761040a610ac9565b5b0160006101000a81548173ffffffffffffffffffffffffffffffffffffffff021916908373ffffffffffffffffffffffffffffffffffffffff1602179055507f1b30e0a556ea9ec102edf7e7869684d78efe978a98e6ea23b86dd868b33508cf60405161047790610b44565b60405180910390a150565b601160009054906101000a900473ffffffffffffffffffffffffffffffffffffffff1673ffffffffffffffffffffffffffffffffffffffff163373ffffffffffffffffffffffffffffffffffffffff1614610512576040517f08c379a0000000000000000000000000000000000000000000000000000000008152600401610509906109da565b60405180910390fd5b80601160006101000a81548173ffffffffffffffffffffffffffffffffffffffff021916908373ffffffffffffffffffffffffffffffffffffffff16021790555050565b61055e6106b1565b60006010806020026040519081016040528092919082601080156105cd576020028201915b8160009054906101000a900473ffffffffffffffffffffffffffffffffffffffff1673ffffffffffffffffffffffffffffffffffffffff1681526020019060010190808311610583575b5050505050905090565b60105481565b60008073ffffffffffffffffffffffffffffffffffffffff166000836010811061060a57610609610ac9565b5b0160009054906101000a900473ffffffffffffffffffffffffffffffffffffffff1673ffffffffffffffffffffffffffffffffffffffff1614610682576040517f08c379a000000000000000000000000000000000000000000000000000000000815260040161067990610bd6565b60405180910390fd5b60019050919050565b601160009054906101000a900473ffffffffffffffffffffffffffffffffffffffff1681565b604051806102000160405280601090602082028036833780820191505090505090565b6000819050919050565b6106e7816106d4565b82525050565b600060408201905061070260008301856106de565b61070f60208301846106de565b9392505050565b600080fd5b610724816106d4565b811461072f57600080fd5b50565b6000813590506107418161071b565b92915050565b60006020828403121561075d5761075c610716565b5b600061076b84828501610732565b91505092915050565b600073ffffffffffffffffffffffffffffffffffffffff82169050919050565b600061079f82610774565b9050919050565b6107af81610794565b82525050565b60006020820190506107ca60008301846107a6565b92915050565b60006107db82610774565b9050919050565b6107eb816107d0565b81146107f657600080fd5b50565b600081359050610808816107e2565b92915050565b60006020828403121561082457610823610716565b5b6000610832848285016107f9565b91505092915050565b600060109050919050565b600081905092915050565b6000819050919050565b61086481610794565b82525050565b6000610876838361085b565b60208301905092915050565b6000602082019050919050565b6108988161083b565b6108a28184610846565b92506108ad82610851565b8060005b838110156108de5781516108c5878261086a565b96506108d083610882565b9250506001810190506108b1565b505050505050565b6000610200820190506108fc600083018461088f565b92915050565b600060208201905061091760008301846106de565b92915050565b60008115159050919050565b6109328161091d565b82525050565b600060208201905061094d6000830184610929565b92915050565b61095c816107d0565b82525050565b60006020820190506109776000830184610953565b92915050565b600082825260208201905092915050565b7f4e6f206572657320656c2061646d696e00000000000000000000000000000000600082015250565b60006109c460108361097d565b91506109cf8261098e565b602082019050919050565b600060208201905081810360008301526109f3816109b7565b9050919050565b7f496e737566696369656e7420616d6f756e74206f6620424e4200000000000000600082015250565b6000610a3060198361097d565b9150610a3b826109fa565b602082019050919050565b60006020820190508181036000830152610a5f81610a23565b9050919050565b7f4e487b7100000000000000000000000000000000000000000000000000000000600052601160045260246000fd5b6000610aa0826106d4565b9150610aab836106d4565b9250828201905080821115610ac357610ac2610a66565b5b92915050565b7f4e487b7100000000000000000000000000000000000000000000000000000000600052603260045260246000fd5b7f5469636b657420636f6d707261646f0000000000000000000000000000000000600082015250565b6000610b2e600f8361097d565b9150610b3982610af8565b602082019050919050565b60006020820190508181036000830152610b5d81610b21565b9050919050565b7f45737465207469636b65742070657274656e6563652061206f7472612070657260008201527f736f6e6100000000000000000000000000000000000000000000000000000000602082015250565b6000610bc060248361097d565b9150610bcb82610b64565b604082019050919050565b60006020820190508181036000830152610bef81610bb3565b905091905056fea2646970667358221220458430ebad8495fc52ca3d256a938645c8b82b72b85ff0e3d7b8ad662321fdc064736f6c63430008110033",
  "immutableReferences": {},
  "source": "pragma solidity ^0.8.10;\r\n\r\ncontract MyContract {\r\n    address[16] public tickets;\r\n    uint public balanceWei = 0;\r\n    address payable public admin;\r\n    event simpleConsoleLog(string message);\r\n\r\n    constructor(address payable _admin) {\r\n        admin = payable(_admin);\r\n    }\r\n\r\n    function transferBalanceToAdmin () public {\r\n        require(msg.sender == admin, \"No eres el admin\");\r\n        \r\n        admin.transfer(balanceWei);\r\n        balanceWei = 0;\r\n    }\r\n\r\n    function changeAdmin(address payable newAdmin) public {\r\n        require(msg.sender == admin, \"No eres el admin\");\r\n\r\n        admin = newAdmin;\r\n    }\r\n\r\n    function getBalance() public view returns (uint, uint256) {\r\n        return (balanceWei, payable(address(this)).balance);\r\n    }\r\n\r\n    function buyTiket(uint tiketIndex) payable public {\r\n        // Comprobacin\r\n        require(tiketIndex >= 0 && tiketIndex <= 15);\r\n        require(msg.value == 0.02 ether, \"Insuficient amount of BNB\");\r\n\r\n        balanceWei += msg.value;\r\n\r\n        isTicketAvailable(tiketIndex);\r\n\r\n        // msg.sender address del usuario que invoco al contrato\r\n        tickets[tiketIndex] = msg.sender;\r\n        emit simpleConsoleLog(\"Ticket comprado\");\r\n    }\r\n\r\n    function isTicketAvailable(uint index) public view returns (bool) {\r\n        require(tickets[index] == address(0), \"Este ticket pertenece a otra persona\");\r\n        return true;\r\n    }\r\n\r\n    function getTikets() public view returns (address[16] memory) {\r\n        return tickets;\r\n    }\r\n}",
  "sourcePath": "D:\\repos\\curso-blockchain\\bnb1\\contracts\\MyContract.sol",
  "compiler": {
    "name": "solc",
    "version": "0.8.17+commit.8df45f5f.Emscripten.clang"
  },
  "schemaVersion": "3.4.16",
  "updatedAt": "2024-07-20T21:18:28.989Z",
  "networkType": "ethereum",
  "devdoc": {
    "kind": "dev",
    "methods": {},
    "version": 1
  },
  "userdoc": {
    "kind": "user",
    "methods": {},
    "version": 1
  }
}