{
	"data": {
		"bytecode": {
			"linkReferences": {},
			"object": "6080604052348015600e575f80fd5b506101d68061001c5f395ff3fe608060405234801561000f575f80fd5b5060043610610029575f3560e01c8063f2579e541461002d575b5f80fd5b6100476004803603810190610042919061013a565b61005d565b6040516100549190610187565b60405180910390f35b5f80600190505f600290505f600390508460ff168660ff1603610085575f93505050506100fa565b8260ff168660ff1614801561009f57508060ff168560ff16145b806100c057508060ff168660ff161480156100bf57508160ff168560ff16145b5b806100e157508160ff168660ff161480156100e057508260ff168560ff16145b5b156100f257600193505050506100fa565b600293505050505b92915050565b5f80fd5b5f60ff82169050919050565b61011981610104565b8114610123575f80fd5b50565b5f8135905061013481610110565b92915050565b5f80604083850312156101505761014f610100565b5b5f61015d85828601610126565b925050602061016e85828601610126565b9150509250929050565b61018181610104565b82525050565b5f60208201905061019a5f830184610178565b9291505056fea2646970667358221220a276612eddd233be7c63360d28624ed5ed11f460587face0a556252fd28572ab64736f6c634300081a0033",
			"opcodes": "PUSH1 0x80 PUSH1 0x40 MSTORE CALLVALUE DUP1 ISZERO PUSH1 0xE JUMPI PUSH0 DUP1 REVERT JUMPDEST POP PUSH2 0x1D6 DUP1 PUSH2 0x1C PUSH0 CODECOPY PUSH0 RETURN INVALID PUSH1 0x80 PUSH1 0x40 MSTORE CALLVALUE DUP1 ISZERO PUSH2 0xF JUMPI PUSH0 DUP1 REVERT JUMPDEST POP PUSH1 0x4 CALLDATASIZE LT PUSH2 0x29 JUMPI PUSH0 CALLDATALOAD PUSH1 0xE0 SHR DUP1 PUSH4 0xF2579E54 EQ PUSH2 0x2D JUMPI JUMPDEST PUSH0 DUP1 REVERT JUMPDEST PUSH2 0x47 PUSH1 0x4 DUP1 CALLDATASIZE SUB DUP2 ADD SWAP1 PUSH2 0x42 SWAP2 SWAP1 PUSH2 0x13A JUMP JUMPDEST PUSH2 0x5D JUMP JUMPDEST PUSH1 0x40 MLOAD PUSH2 0x54 SWAP2 SWAP1 PUSH2 0x187 JUMP JUMPDEST PUSH1 0x40 MLOAD DUP1 SWAP2 SUB SWAP1 RETURN JUMPDEST PUSH0 DUP1 PUSH1 0x1 SWAP1 POP PUSH0 PUSH1 0x2 SWAP1 POP PUSH0 PUSH1 0x3 SWAP1 POP DUP5 PUSH1 0xFF AND DUP7 PUSH1 0xFF AND SUB PUSH2 0x85 JUMPI PUSH0 SWAP4 POP POP POP POP PUSH2 0xFA JUMP JUMPDEST DUP3 PUSH1 0xFF AND DUP7 PUSH1 0xFF AND EQ DUP1 ISZERO PUSH2 0x9F JUMPI POP DUP1 PUSH1 0xFF AND DUP6 PUSH1 0xFF AND EQ JUMPDEST DUP1 PUSH2 0xC0 JUMPI POP DUP1 PUSH1 0xFF AND DUP7 PUSH1 0xFF AND EQ DUP1 ISZERO PUSH2 0xBF JUMPI POP DUP2 PUSH1 0xFF AND DUP6 PUSH1 0xFF AND EQ JUMPDEST JUMPDEST DUP1 PUSH2 0xE1 JUMPI POP DUP2 PUSH1 0xFF AND DUP7 PUSH1 0xFF AND EQ DUP1 ISZERO PUSH2 0xE0 JUMPI POP DUP3 PUSH1 0xFF AND DUP6 PUSH1 0xFF AND EQ JUMPDEST JUMPDEST ISZERO PUSH2 0xF2 JUMPI PUSH1 0x1 SWAP4 POP POP POP POP PUSH2 0xFA JUMP JUMPDEST PUSH1 0x2 SWAP4 POP POP POP POP JUMPDEST SWAP3 SWAP2 POP POP JUMP JUMPDEST PUSH0 DUP1 REVERT JUMPDEST PUSH0 PUSH1 0xFF DUP3 AND SWAP1 POP SWAP2 SWAP1 POP JUMP JUMPDEST PUSH2 0x119 DUP2 PUSH2 0x104 JUMP JUMPDEST DUP2 EQ PUSH2 0x123 JUMPI PUSH0 DUP1 REVERT JUMPDEST POP JUMP JUMPDEST PUSH0 DUP2 CALLDATALOAD SWAP1 POP PUSH2 0x134 DUP2 PUSH2 0x110 JUMP JUMPDEST SWAP3 SWAP2 POP POP JUMP JUMPDEST PUSH0 DUP1 PUSH1 0x40 DUP4 DUP6 SUB SLT ISZERO PUSH2 0x150 JUMPI PUSH2 0x14F PUSH2 0x100 JUMP JUMPDEST JUMPDEST PUSH0 PUSH2 0x15D DUP6 DUP3 DUP7 ADD PUSH2 0x126 JUMP JUMPDEST SWAP3 POP POP PUSH1 0x20 PUSH2 0x16E DUP6 DUP3 DUP7 ADD PUSH2 0x126 JUMP JUMPDEST SWAP2 POP POP SWAP3 POP SWAP3 SWAP1 POP JUMP JUMPDEST PUSH2 0x181 DUP2 PUSH2 0x104 JUMP JUMPDEST DUP3 MSTORE POP POP JUMP JUMPDEST PUSH0 PUSH1 0x20 DUP3 ADD SWAP1 POP PUSH2 0x19A PUSH0 DUP4 ADD DUP5 PUSH2 0x178 JUMP JUMPDEST SWAP3 SWAP2 POP POP JUMP INVALID LOG2 PUSH5 0x6970667358 0x22 SLT KECCAK256 LOG2 PUSH23 0x612EDDD233BE7C63360D28624ED5ED11F460587FACE0A5 JUMP 0x25 0x2F 0xD2 DUP6 PUSH19 0xAB64736F6C634300081A003300000000000000 "
		},
		"gasEstimates": {
			"creation": {
				"codeDepositCost": "94000",
				"executionCost": "139",
				"totalCost": "94139"
			},
			"external": {
				"solve(uint8,uint8)": "infinite"
			}
		},
		"methodIdentifiers": {
			"solve(uint8,uint8)": "f2579e54"
		}
	},
	"abi": [
		{
			"inputs": [
				{
					"internalType": "uint8",
					"name": "player1",
					"type": "uint8"
				},
				{
					"internalType": "uint8",
					"name": "player2",
					"type": "uint8"
				}
			],
			"name": "solve",
			"outputs": [
				{
					"internalType": "uint8",
					"name": "",
					"type": "uint8"
				}
			],
			"stateMutability": "pure",
			"type": "function"
		}
	]
}